{
  "_format": "hh-sol-artifact-1",
  "contractName": "Transaction",
  "sourceName": "contracts/Transaction.sol",
  "abi": [
    {
      "anonymous": false,
      "inputs": [
        {
          "indexed": false,
          "internalType": "address",
          "name": "from",
          "type": "address"
        },
        {
          "indexed": false,
          "internalType": "address",
          "name": "reciever",
          "type": "address"
        },
        {
          "indexed": false,
          "internalType": "uint256",
          "name": "amount",
          "type": "uint256"
        },
        {
          "indexed": false,
          "internalType": "string",
          "name": "message",
          "type": "string"
        },
        {
          "indexed": false,
          "internalType": "uint256",
          "name": "timestap",
          "type": "uint256"
        },
        {
          "indexed": false,
          "internalType": "string",
          "name": "keyword",
          "type": "string"
        }
      ],
      "name": "Transfer",
      "type": "event"
    },
    {
      "inputs": [
        {
          "internalType": "address",
          "name": "_to",
          "type": "address"
        },
        {
          "internalType": "uint256",
          "name": "_amount",
          "type": "uint256"
        },
        {
          "internalType": "string",
          "name": "_message",
          "type": "string"
        },
        {
          "internalType": "string",
          "name": "keyword",
          "type": "string"
        }
      ],
      "name": "addTtansaction",
      "outputs": [],
      "stateMutability": "nonpayable",
      "type": "function"
    },
    {
      "inputs": [],
      "name": "getTransactions",
      "outputs": [
        {
          "components": [
            {
              "internalType": "address",
              "name": "from",
              "type": "address"
            },
            {
              "internalType": "address",
              "name": "reciever",
              "type": "address"
            },
            {
              "internalType": "uint256",
              "name": "amount",
              "type": "uint256"
            },
            {
              "internalType": "string",
              "name": "message",
              "type": "string"
            },
            {
              "internalType": "uint256",
              "name": "timestamp",
              "type": "uint256"
            },
            {
              "internalType": "string",
              "name": "keyword",
              "type": "string"
            }
          ],
          "internalType": "struct Transaction.TransactionStruct[]",
          "name": "",
          "type": "tuple[]"
        }
      ],
      "stateMutability": "view",
      "type": "function"
    },
    {
      "inputs": [],
      "name": "getTransactionsCount",
      "outputs": [
        {
          "internalType": "uint256",
          "name": "",
          "type": "uint256"
        }
      ],
      "stateMutability": "view",
      "type": "function"
    }
  ],
  "bytecode": "0x608060405234801561001057600080fd5b50610b18806100206000396000f3fe608060405234801561001057600080fd5b50600436106100415760003560e01c8063578cb8f91461004657806383920e9014610064578063fa3ebfb314610082575b600080fd5b61004e61009e565b60405161005b91906108b3565b60405180910390f35b61006c6100a7565b6040516100799190610891565b60405180910390f35b61009c600480360381019061009791906105c8565b6102ea565b005b60008054905090565b60606001805480602002602001604051908101604052809291908181526020016000905b828210156102e157838290600052602060002090600602016040518060c00160405290816000820160009054906101000a900473ffffffffffffffffffffffffffffffffffffffff1673ffffffffffffffffffffffffffffffffffffffff1673ffffffffffffffffffffffffffffffffffffffff1681526020016001820160009054906101000a900473ffffffffffffffffffffffffffffffffffffffff1673ffffffffffffffffffffffffffffffffffffffff1673ffffffffffffffffffffffffffffffffffffffff168152602001600282015481526020016003820180546101b490610a13565b80601f01602080910402602001604051908101604052809291908181526020018280546101e090610a13565b801561022d5780601f106102025761010080835404028352916020019161022d565b820191906000526020600020905b81548152906001019060200180831161021057829003601f168201915b505050505081526020016004820154815260200160058201805461025090610a13565b80601f016020809104026020016040519081016040528092919081815260200182805461027c90610a13565b80156102c95780601f1061029e576101008083540402835291602001916102c9565b820191906000526020600020905b8154815290600101906020018083116102ac57829003601f168201915b505050505081525050815260200190600101906100cb565b50505050905090565b60016040518060c001604052803373ffffffffffffffffffffffffffffffffffffffff1681526020018673ffffffffffffffffffffffffffffffffffffffff16815260200185815260200184815260200142815260200183815250908060018154018082558091505060019003906000526020600020906006020160009091909190915060008201518160000160006101000a81548173ffffffffffffffffffffffffffffffffffffffff021916908373ffffffffffffffffffffffffffffffffffffffff16021790555060208201518160010160006101000a81548173ffffffffffffffffffffffffffffffffffffffff021916908373ffffffffffffffffffffffffffffffffffffffff160217905550604082015181600201556060820151816003019080519060200190610422929190610493565b506080820151816004015560a0820151816005019080519060200190610449929190610493565b5050507f416cfa4330a4565f45c2fd2dd4826a83a37443aba2ce6f79477c7355afac35fa33858585428660405161048596959493929190610822565b60405180910390a150505050565b82805461049f90610a13565b90600052602060002090601f0160209004810192826104c15760008555610508565b82601f106104da57805160ff1916838001178555610508565b82800160010185558215610508579182015b828111156105075782518255916020019190600101906104ec565b5b5090506105159190610519565b5090565b5b8082111561053257600081600090555060010161051a565b5090565b6000610549610544846108ff565b6108ce565b90508281526020810184848401111561056157600080fd5b61056c8482856109d1565b509392505050565b60008135905061058381610ab4565b92915050565b600082601f83011261059a57600080fd5b81356105aa848260208601610536565b91505092915050565b6000813590506105c281610acb565b92915050565b600080600080608085870312156105de57600080fd5b60006105ec87828801610574565b94505060206105fd878288016105b3565b935050604085013567ffffffffffffffff81111561061a57600080fd5b61062687828801610589565b925050606085013567ffffffffffffffff81111561064357600080fd5b61064f87828801610589565b91505092959194509250565b60006106678383610774565b905092915050565b61067881610995565b82525050565b61068781610995565b82525050565b60006106988261093f565b6106a28185610962565b9350836020820285016106b48561092f565b8060005b858110156106f057848403895281516106d1858261065b565b94506106dc83610955565b925060208a019950506001810190506106b8565b50829750879550505050505092915050565b600061070d8261094a565b6107178185610973565b93506107278185602086016109e0565b61073081610aa3565b840191505092915050565b60006107468261094a565b6107508185610984565b93506107608185602086016109e0565b61076981610aa3565b840191505092915050565b600060c08301600083015161078c600086018261066f565b50602083015161079f602086018261066f565b5060408301516107b26040860182610804565b50606083015184820360608601526107ca8282610702565b91505060808301516107df6080860182610804565b5060a083015184820360a08601526107f78282610702565b9150508091505092915050565b61080d816109c7565b82525050565b61081c816109c7565b82525050565b600060c082019050610837600083018961067e565b610844602083018861067e565b6108516040830187610813565b8181036060830152610863818661073b565b90506108726080830185610813565b81810360a0830152610884818461073b565b9050979650505050505050565b600060208201905081810360008301526108ab818461068d565b905092915050565b60006020820190506108c86000830184610813565b92915050565b6000604051905081810181811067ffffffffffffffff821117156108f5576108f4610a74565b5b8060405250919050565b600067ffffffffffffffff82111561091a57610919610a74565b5b601f19601f8301169050602081019050919050565b6000819050602082019050919050565b600081519050919050565b600081519050919050565b6000602082019050919050565b600082825260208201905092915050565b600082825260208201905092915050565b600082825260208201905092915050565b60006109a0826109a7565b9050919050565b600073ffffffffffffffffffffffffffffffffffffffff82169050919050565b6000819050919050565b82818337600083830152505050565b60005b838110156109fe5780820151818401526020810190506109e3565b83811115610a0d576000848401525b50505050565b60006002820490506001821680610a2b57607f821691505b60208210811415610a3f57610a3e610a45565b5b50919050565b7f4e487b7100000000000000000000000000000000000000000000000000000000600052602260045260246000fd5b7f4e487b7100000000000000000000000000000000000000000000000000000000600052604160045260246000fd5b6000601f19601f8301169050919050565b610abd81610995565b8114610ac857600080fd5b50565b610ad4816109c7565b8114610adf57600080fd5b5056fea2646970667358221220c54b7e4ce3fc23d727bdc8e3d7dce963fe8c650a3e7d47aef0704af2b635d25064736f6c63430008000033",
  "linkReferences": {},
  "deployedLinkReferences": {}
}